:100000000C943B000C9458000C9493020C945800F0
:100010000C9458000C9458000C9458000C94580000
:100020000C9458000C9458000C9458000C945800F0
:100030000C9458000C9458000C9484010C945800B3
:100040000C9458000C9458000C9458000C945800D0
:100050000C9458000C9458000C9458000C945800C0
:100060000C9458000C945800930749074D075E07FD
:100070006F0780078D0711241FBECFEFD8E0DEBFCA
:10008000CDBF11E0A0E0B1E0E6E5FEE102C00590E1
:100090000D92A439B107D9F722E0A4E9B1E001C07B
:1000A0001D92A630B207E1F70E9467090C94290F50
:1000B0000C94000084EA8093BC00ECEBF0E08081BB
:1000C0008823ECF708958093BB0084E88093BC00FC
:1000D000ECEBF0E080818823ECF708958093BB007F
:1000E00084E88093BC00ECEBF0E080818823ECF79F
:1000F0000895ECEBF0E080818B7F80831092B90053
:1001000082E68093B80084E0808385E38A95F1F7E6
:1001100000000895CF93C82F0E945A008EE40E94D9
:1001200063008C2F0E946E0084E98093BC00CF9105
:100130000895CF93C82F809196018F7084609C2F73
:10014000907F892B809396010E948A0035E03A9532
:10015000F1F70000809196018B7F809396010E94B9
:100160008A008AE18A95F1F700C0809196018F702C
:10017000282F246030E1C39FC0011124822B80937B
:1001800096010E948A0085E08A95F1F7000080912F
:1001900096018B7F809396010E948A003AE13A95FE
:1001A000F1F700C0CF910895CF93C82F88E08093D6
:1001B00096010E948A008C2F0E949900CF91089589
:1001C000CF93C82F90919601892F896080939601D3
:1001D0000E948A008C2F0E949900CF910895CF939E
:1001E000DF93EC018881882331F021960E94E000A2
:1001F00089918111FBCFDF91CF91089581E00E9419
:10020000D400089582E00E94D40008950E947900ED
:100210000E94020188E20E94D4008CE00E94D40077
:1002200086E00E94D40081E090E00E94FE000895E4
:100230000F931F93CF93DF93082F10E00150110904
:10024000101611064CF4C0E0D0E084E10E94D40006
:100250002196C017D107CCF3DF91CF911F910F9159
:100260000895CF93DF93CDB7DEB76E970FB6F894AE
:10027000DEBF0FBECDBF9E012D5D3F4FF901419105
:1002800051919F016EE170E0CE0101960E94480CF1
:10029000CE0101960E94EF006E960FB6F894DEBF75
:1002A0000FBECDBFDF91CF9108959C01623029F040
:1002B00091E0611105C090E003C090E020E030E0E3
:1002C000309389002093880088B1892B88B90895DC
:1002D000E0E8F0E01082A1E8B0E01C92219A389AA0
:1002E0008C9189618C938081826080838081806819
:1002F00080838FEF9CE79093870080938600109215
:1003000089001092880008951F920F920FB60F92E5
:1003100011242F933F934F935F936F937F938F930A
:100320009F93AF932091C2013091C3014091C401CA
:100330005091C5016091C6017091C7018091C801BB
:100340009091C901A1E00E94CC0B2093C20130938F
:10035000C3014093C4015093C5016093C6017093DB
:10036000C7018093C8019093C901AF919F918F916C
:100370007F916F915F914F913F912F910F900FBEA1
:100380000F901F901895F8942091C2013091C301ED
:100390004091C4015091C5016091C6017091C7019F
:1003A0008091C8019091C9017894089584B58260C4
:1003B00084BD8CE787BDEEE6F0E0808182608083BB
:1003C00085B5826085BD78940895EF92FF920F9372
:1003D0001F93CF93DF93CDB7DEB70DB71EB7FC01E8
:1003E00001900020E9F73197E81BF90BEE23E9F1C2
:1003F000DC013C913A3281F5E130D9F1EDB6FEB63F
:10040000FF272DB73EB72E1B3F0B0FB6F8943EBF0C
:100410000FBE2DBF2F5F3F4F1E161F066CF41196A7
:10042000A9013196BF01680F791F8D91FA0181935F
:10043000AF01A617B707C9F7C9010E94ED0BBC01B0
:10044000990F880B990B0E94950A90580FB6F89453
:10045000FEBE0FBEEDBE10C00E94ED0BBC01990F99
:10046000880B990B0E94950A07C060E070E0CB01F1
:1004700003C060E070E0CB010FB6F8941EBF0FBE62
:100480000DBFDF91CF911F910F91FF90EF900895D5
:10049000FC0101900020E9F73197E81B09F43FC007
:1004A000DC0111962C9111972A3281F5E23059F432
:1004B0006C9170E060537109072E000C880B990B4A
:1004C0000E94950A0895FC01208130E020533109F3
:1004D000B901660F771F220F331F220F331F220F20
:1004E000331F260F371F628170E060537109620F5E
:1004F000731F072E000C880B990B0E94950A20E0B1
:1005000030E040E251E40E94EB0908950E94ED0BB7
:10051000BC01990F880B990B0E94950A089560E021
:1005200070E0CB0108951F920F920FB60F92112425
:100530008F939F938091B8019091B9010196909308
:10054000B9018093B8019F918F910F900FBE0F90CA
:100550001F901895F8948091B8019091B90110926C
:10056000B9011092B80178940895AF92BF92CF92DA
:10057000DF92EF92FF920F931F930E94C301A0900E
:10058000BA01B090BB01C090BC01D090BD01E09019
:10059000BE01F090BF010091C0011091C1010E9405
:1005A000D80B273E33404105510561057105810592
:1005B000910589F180F10E94C3012093BA01309323
:1005C000BB014093BC015093BD016093BE01709389
:1005D000BF018093C0019093C1010E94AA024CE325
:1005E000489F9001499F300D1124A9E8B8E80E9466
:1005F000BD0B929582958F7089279F708927BC01CA
:1006000080E090E06093B4017093B5018093B601EF
:100610009093B70108C06091B4017091B5018091C9
:10062000B6019091B7011F910F91FF90EF90DF906D
:10063000CF90BF90AF9008952F923F924F925F92CC
:100640006F927F928F929F92AF92BF92CF92DF92E2
:10065000EF92FF920F931F93CF93DF9300D000D0C0
:10066000CDB7DEB71C012A013B0109831A832B8316
:100670003C8320E030E0A901C501B4010E94E609F5
:10068000882344F4B7FAB094B7F8B09481E0F1014C
:10069000808F0BC020E030E0A901C501B4010E94A9
:1006A000450B882314F0F101108EF1014082518234
:1006B000628273822DEC3CEC4CEC5DE3C701B60129
:1006C0000E944A0BF10164837583868397832DEC26
:1006D0003CEC4CEC5DE369817A818B819C810E94CA
:1006E000EB09F101608771878287938784869586FD
:1006F000A686B786108A118A128A138A148A158AE6
:10070000168A178A84E690E0A0E0B0E0838F948F89
:10071000A58FB68F0E94C301822E932EA42EB52ED4
:10072000F101838D948DA58DB68D881A990AAA0A38
:10073000BB0A878E90A2A1A2B2A20F900F900F9039
:100740000F90DF91CF911F910F91FF90EF90DF906D
:10075000CF90BF90AF909F908F907F906F905F9061
:100760004F903F902F900895FC01218D328D2617D8
:10077000370718F4728F618F08954217530718F4E2
:10078000FC01528F418F08954F925F926F927F923A
:100790008F929F92AF92BF92CF92DF92EF92FF9291
:1007A000CF93DF93EC012A013B010E94C301822E0B
:1007B000932EA42EB52E8F8D98A1A9A1BAA1881A27
:1007C000990AAA0ABB0A8B8D9C8DAD8DBE8D8816A9
:1007D0009906AA06BB0608F49EC0C301B2010E9496
:1007E000930A9B01AC016C857D858E859F850E9457
:1007F00079096B017C0120E030E0A9010E94E60943
:10080000882324F4F7FAF094F7F8F09428813981DA
:100810004A815B81C701B6010E944A0B2B013C0152
:100820002C813D814E815F81C701B6010E944A0B38
:100830002C893D894E895F890E947A094B015C01B0
:1008400020E030E342EF56E40E94450B18164CF4CA
:1008500080E090E3A2EFB6E48C8B9D8BAE8BBF8BD8
:1008600012C020E030E0A901C501B4010E94E609F0
:1008700088232CF08C8A9D8AAE8ABF8A04C01C8A89
:100880001D8A1E8A1F8A2C893D894E895F89C30172
:10089000B2010E947A094B015C01288939894A8991
:1008A0005B89C701B6010E947909288539854A8587
:1008B0005B850E944A0B9B01AC01C501B4010E94FB
:1008C00079090E945D0A7A8F698FC88AD98AEA8A73
:1008D000FB8A4FEF5CE760E070E0CE010E94B4035A
:1008E000888D813079F040F08230A9F462E080E0B8
:1008F00090E00E9455010FC060E0898D9A8D0E94A2
:10090000550109C0298D3A8D61E08FEF9CE7821B6C
:10091000930B0E945501DF91CF91FF90EF90DF90F4
:10092000CF90BF90AF909F908F907F906F905F908F
:100930004F90089582E08DBB88E0809369007894A1
:100940000895861748F091E4E62FF0E0E151FE4F5C
:1009500090836F5F8617C0F708956F927F928F9292
:100960009F92AF92BF92CF92DF92EF92FF920F933E
:100970001F93CF93DF93FB013196DF01A40FB11DCD
:10098000AD01DC01ED91FC91E417F50708F455C0C9
:100990003801E9017B018C01109205020E94FE00E2
:1009A0000E9402018FE091E00E94EF00F801F182C5
:1009B000E08288818330D9F018F4823031F03DC074
:1009C000843011F1853069F138C0812C912C5401AB
:1009D0007501640195018401B501A4018CEC91E0DD
:1009E0000E941C0382E08883D3011C9226C083E00E
:1009F000888360910402F30180810E94A1048091A8
:100A00000402D3018C9319C084E088836091CB01E8
:100A1000F30180810E94A1048091CB01D3018C93CA
:100A20000CC085E088836091CA01F30180810E9437
:100A3000A1048091CA01D3018C93DF91CF911F91C2
:100A40000F91FF90EF90DF90CF90BF90AF909F906D
:100A50008F907F906F90089580910502833051F1BF
:100A600028F4813059F08230E1F00895853009F49E
:100A700040C098F1863009F448C008950E94FE00F5
:100A80000E94020184E00E9418018EE191E00E9420
:100A9000EF0080EC0E94D40089E291E00E94EF0018
:100AA00008950E94FE000E9402018AE391E00E94E4
:100AB000EF0008950E94FE000E94020182E00E9461
:100AC000180187E491E00E94EF0080EC0E94D400BE
:100AD00086E591E00E94EF0008950E94FE000E94CA
:100AE000020180EC0E94D4008AE591E00E94EF00B0
:100AF00008950E94FE000E94020180EC0E94D40032
:100B00008EE591E00E94EF0008950E94FE000E9491
:100B1000020182E691E09F938F930E9431010F9032
:100B20000F9008958AB1806F8AB98BB187608BB9B5
:100B300008952BB1E82FF0E0ED5FFE4F81E090E0EB
:100B4000008002C0880F991F0A94E2F780958223E3
:100B50008BB90895E3E0F1E067E071E041E050E037
:100B60002BB1CA01019002C0880F991F0A94E2F7C5
:100B7000822B8BB9E617F70799F70895FF920F9329
:100B80001F93CF93DF93F12C00E011E0C1E0D0E0A0
:100B90000E94AA058F2D0E94990599B1F8018081C4
:100BA000AE01082E02C0440F551F0A94E2F7292F08
:100BB00030E02423352302C0359527958A95E2F746
:100BC0002115310569F189B19181AE01092E02C06B
:100BD000440F551F0A94E2F7282F30E024233523D1
:100BE00002C0359527959A95E2F7232BB9F099B174
:100BF0002281AE01022E02C0440F551F0A94E2F773
:100C0000892F90E08423952302C0959587952A9596
:100C1000E2F7892B99F422E030E002C021E030E0D5
:100C20008F2D90E0FC01EE0FFF1FE80FF91F2E0F34
:100C30003F1FF901E957FE4F808105C0F394F4E0AE
:100C4000FF12A6CF80E0DF91CF911F910F91FF900F
:100C50000895AF92BF92CF92DF92EF92FF920F93DF
:100C60001F93CF930E94BE05C82F8091A101C81782
:100C7000B9F00E94C30120939801309399014093E9
:100C80009A0150939B0160939C0170939D01809306
:100C90009E0190939F0181E08093A001C093A101E8
:100CA0008091A0018823F9F00E94C301A0909801CF
:100CB000B0909901C0909A01D0909B01E0909C0166
:100CC000F0909D0100919E0110919F010E94D80B10
:100CD000AEE00E94E10B39F030F08091A1018093E9
:100CE00097011092A001CF911F910F91FF90EF906B
:100CF000DF90CF90BF90AF9008956F927F928F92C8
:100D00009F92AF92BF92CF92DF92EF92FF920F939A
:100D10001F93CF93DF930E94B502662E772ED82FB4
:100D2000C92F8091B201813009F04FC01092B201F9
:100D300069E671E08FEE91E00E94100C892B09F4B6
:100D400082C06BE671E08FEE91E00E940B0C8C018B
:100D50000E94E5016093A2017093A3018093A40116
:100D60009093A501012BD9F011E06BE671E080E0D2
:100D700090E00E940B0C009791F001E0010F0E949F
:100D80004802E12FF0E0EE0FFF1FEE0FFF1FEE55C0
:100D9000FE4F6083718382839383102FE6CFE2EA54
:100DA000F1E080809180A280B380C484D584E68401
:100DB000F7840085118522853385448155816681BC
:100DC00077818CEC91E00E941C03809105028630B3
:100DD000D1F50E94020187E00E941801CF93DF93B2
:100DE0007F926F928DE691E09F938F930E943101E5
:100DF000462D572D6D2F7C2F8CEC91E00E94C40363
:100E00008091E4010F900F900F900F900F900F9032
:100E100081110CC080EC0E94D4008DE791E09F937B
:100E20008F930E9431010F900F900DC0813059F4C3
:100E300080EC0E94D40086E791E09F938F930E94FC
:100E400031010F900F90DF91CF911F910F91FF9083
:100E5000EF90DF90CF90BF90AF909F908F907F905A
:100E60006F9008950F931F93CF930E942906C0910E
:100E70009701C33209F024C2E09105028E2F90E061
:100E80008730910508F053C0FC01EC5CFF4F0C94D7
:100E9000B70B82E0809305024AC0E091B30181E084
:100EA0008E0F8093B301F0E0E151FE4F9CE79083F9
:100EB0008093040283E08093050239C0E091B3017E
:100EC00081E08E0F8093B301F0E0E151FE4F9CE78B
:100ED00090838093CB0184E08093050228C0E09149
:100EE000B30181E08E0F8093B301F0E0E151FE4F3A
:100EF0009CE790838093CA0185E08093050217C028
:100F0000E091B301F0E0E151FE4F108281E0809367
:100F1000B20186E0809305020AC01092B30182E01C
:100F20008093050204C080910302809305020E9411
:100F30002C0510929701C1C18091B2018111BDC1F0
:100F40000E942906809197018111B7C18091050205
:100F5000833009F460C018F4823041F0AEC18430AF
:100F600009F4CAC0853009F438C1A7C182E0809372
:100F7000030283EC90E090930801809307018DE0D9
:100F80000E94D40080910D0190910E019C012F5F71
:100F90003F4F30930E0120930D010E94D400E09149
:100FA000B30181E08E0F8093B301F0E0E151FE4F79
:100FB000C083CA3271F4823060F003EB11E023E0A9
:100FC00032E041E062EC70E08DE091E00E94AD041F
:100FD00074C18091EF018A3279F48C2F0E94E00075
:100FE00003EB11E023E032E044E062EC70E08DE0DE
:100FF00091E00E94AD0461C18C2F0E94E00003EBE0
:1010000011E023E032E043E062EC70E08DE091E03B
:101010000E94AD0452C183E08093030282EC90E011
:1010200090930E0180930D0180910B0190910C0122
:101030009C012F5F3F4F30930C0120930B010E94C6
:10104000D400E091B30121E02E0F2093B301F0E032
:10105000E151FE4FC0838091040290E0FC01E15118
:10106000FE4F30813A3261F403EB11E023E032E0CD
:1010700040E063EC70E08BE091E00E94AD041DC1A4
:10108000FC01E151FE4F31813A3239F530E0281B45
:10109000390B2430310534F4FC01E151FE4F8281DB
:1010A0008A3261F403EB11E023E032E040E063ECCC
:1010B00070E08BE091E00E94AD04FFC08C2F0E9495
:1010C000E00003EB11E023E032E043E063EC70E08A
:1010D0008BE091E00E94AD04F0C08C2F0E94E000F4
:1010E00003EB11E023E032E042E063EC70E08BE0E0
:1010F00091E00E94AD04E1C084E08093030283ECA0
:1011000090E090930C0180930B01809109019091E4
:101110000A019C012F5F3F4F30930A012093090180
:101120000E94D400E091B30121E02E0F2093B3017F
:10113000F0E0E151FE4FC0838091CB0190E0FC01D3
:10114000E151FE4F30813A3261F403EB11E023E0CC
:1011500032E040E063EC70E089E091E00E94AD0491
:10116000ACC0FC01E151FE4F31813A3239F530E03B
:10117000281B390B2430310534F4FC01E151FE4FBA
:1011800082818A3261F403EB11E023E032E040E037
:1011900063EC70E089E091E00E94AD048EC08C2F7A
:1011A0000E94E00003EB11E023E032E043E063EC57
:1011B00070E089E091E00E94AD047FC08C2F0E9416
:1011C000E00003EB11E023E032E042E063EC70E08A
:1011D00089E091E00E94AD0470C085E08093030235
:1011E00083EC90E090930A018093090180910701BC
:1011F000909108019C012F5F3F4F3093080120938D
:1012000007010E94D400E091B30121E02E0F20934A
:10121000B301F0E0E151FE4FC0838091CA0190E03C
:10122000FC01E151FE4F30813A3261F403EB11E0F1
:1012300023E032E040E063EC70E087E091E00E9460
:10124000AD043BC0FC01E151FE4F31813A3239F52A
:1012500030E0281B390B2430310534F4FC01E15116
:10126000FE4F82818A3261F403EB11E023E032E029
:1012700040E063EC70E087E091E00E94AD041DC0A7
:101280008C2F0E94E00003EB11E023E032E043E00A
:1012900063EC70E087E091E00E94AD040EC08C2FFB
:1012A0000E94E00003EB11E023E032E042E063EC57
:1012B00070E087E091E00E94AD040E947D0603C0CB
:1012C000C1113ACEFACFCF911F910F9108950E948C
:1012D000D6010E949A040E9468010E9492050E9411
:1012E000060181E0809305020E942C050E943207CE
:1012F000FDCF5058BB27AA270E9491090C940B0BD5
:101300000E94FD0A38F00E94040B20F039F49F3F40
:1013100019F426F40C94FA0A0EF4E095E7FB0C9409
:10132000F40AE92F0E941C0B58F3BA1762077307DF
:101330008407950720F079F4A6F50C943E0B0EF483
:10134000E0950B2EBA2FA02D0B01B90190010C01D5
:10135000CA01A0011124FF27591B99F0593F50F4ED
:10136000503E68F11A16F040A22F232F342F442745
:10137000585FF3CF469537952795A795F04053953D
:10138000C9F77EF41F16BA0B620B730B840BBAF00D
:101390009150A1F0FF0FBB1F661F771F881FC2F778
:1013A0000EC0BA0F621F731F841F48F4879577958C
:1013B0006795B795F7959E3F08F0B0CF9395880F46
:1013C00008F09927EE0F9795879508950E94D00A07
:1013D00008F481E008950E94FF090C940B0B0E9411
:1013E000040B58F00E94FD0A40F029F45F3F29F0F9
:1013F0000C94F40A51110C943F0B0C94FA0A0E94BD
:101400001C0B68F39923B1F3552391F3951B550BEE
:10141000BB27AA2762177307840738F09F5F5F4FC7
:10142000220F331F441FAA1FA9F335D00E2E3AF006
:10143000E0E832D091505040E695001CCAF72BD01E
:10144000FE2F29D0660F771F881FBB1F261737076F
:101450004807AB07B0E809F0BB0B802DBF01FF27A1
:1014600093585F4F3AF09E3F510578F00C94F40A80
:101470000C943F0B5F3FE4F3983ED4F38695779549
:101480006795B795F7959F5FC9F7880F911D96955A
:10149000879597F90895E1E0660F771F881FBB1FB6
:1014A000621773078407BA0720F0621B730B840B63
:1014B000BA0BEE1F88F7E09508950E94640A6894BD
:1014C000B1110C943F0B08950E94240B88F09F5794
:1014D00098F0B92F9927B751B0F0E1F0660F771F58
:1014E000881F991F1AF0BA95C9F714C0B13091F04E
:1014F0000E943E0BB1E008950C943E0B672F782FAD
:101500008827B85F39F0B93FCCF386957795679512
:10151000B395D9F73EF490958095709561957F4F7E
:101520008F4F9F4F0895E89409C097FB3EF4909524
:101530008095709561957F4F8F4F9F4F9923A9F0AC
:10154000F92F96E9BB279395F6958795779567953B
:10155000B795F111F8CFFAF4BB0F11F460FF1BC07F
:101560006F5F7F4F8F4F9F4F16C0882311F096E912
:1015700011C0772321F09EE8872F762F05C06623C0
:1015800071F096E8862F70E060E02AF09A95660F79
:10159000771F881FDAF7880F9695879597F9089532
:1015A000990F0008550FAA0BE0E8FEEF1616170674
:1015B000E807F907C0F012161306E407F50798F0DC
:1015C000621B730B840B950B39F40A2661F0232BF5
:1015D000242B252B21F408950A2609F4A140A69571
:1015E0008FEF811D811D089597F99F6780E870E056
:1015F00060E008959FEF80EC089500240A94161689
:10160000170618060906089500240A9412161306F0
:10161000140605060895092E0394000C11F488237E
:1016200052F0BB0F40F4BF2B11F460FF04C06F5F9A
:101630007F4F8F4F9F4F089557FD9058440F551F70
:1016400059F05F3F71F04795880F97FB991F61F044
:101650009F3F79F087950895121613061406551FBB
:10166000F2CF4695F1DF08C0161617061806991F27
:10167000F1CF86957105610508940895E894BB271C
:1016800066277727CB0197F908950E94D00A08F4BE
:101690008FEF08950E945D0B0C940B0B0E94FD0AC6
:1016A00038F00E94040B20F0952311F00C94F40AFA
:1016B0000C94FA0A11240C943F0B0E941C0B70F33B
:1016C000959FC1F3950F50E0551F629FF001729FE7
:1016D000BB27F00DB11D639FAA27F00DB11DAA1FF6
:1016E000649F6627B00DA11D661F829F2227B00D43
:1016F000A11D621F739FB00DA11D621F839FA00DCE
:10170000611D221F749F3327A00D611D231F849F1D
:10171000600D211D822F762F6A2F11249F57504074
:101720009AF0F1F088234AF0EE0FFF1FBB1F661FEF
:10173000771F881F91505040A9F79E3F510580F0B8
:101740000C94F40A0C943F0B5F3FE4F3983ED4F3FF
:10175000869577956795B795F795E7959F5FC1F75C
:10176000FE2B880F911D9695879597F90895EE0F9A
:10177000FF1F0590F491E02D0994A29FB001B39F43
:10178000C001A39F700D811D1124911DB29F700D8A
:10179000811D1124911D08950024A7FD00942A0F96
:1017A000301D401D501D601D701D801D901D089531
:1017B0002A193B094C095D096E097F09800B910BC1
:1017C00008950024A7FD00942A1730054005500510
:1017D00060057005800590050895FC01882799270C
:1017E000E89421912032E9F3293010F02E30C8F32B
:1017F0002B3241F02D3239F4689404C00E94400C21
:10180000820F911D219120532A30C0F31EF4909530
:1018100081959F4F089544E951E00E94190C089565
:10182000FB01DC018D91019080190110D9F3990B16
:101830000895FA01A191B081009719F41097E1F091
:10184000CD01DC01CD010D90002011F4C00113C0C9
:10185000FB012191222319F02015D9F7F3CFFB01C9
:101860002191201519F41E92119606C02223C1F76A
:101870000D900020A1F7D001FA01A193B083089543
:101880007AE0979F902D879F802D910D11240895C8
:10189000AEE0B0E0EEE4FCE00C94000F8C01CA0175
:1018A00046E04C831A83098377FF02C060E070E84A
:1018B000FB013197FE83ED83A901BC01CE010196A6
:1018C0000E94740C4D815E8157FD0AC02F813885BE
:1018D000421753070CF49A01F801E20FF31F10822C
:1018E0002E96E4E00C941C0FACE0B0E0EAE7FCE0DC
:1018F0000C94F20E7C016B018A01FC0117821682A6
:10190000838181FFBDC1CE0101964C01F701938116
:10191000F60193FD859193FF81916F01882309F46E
:10192000ABC1853239F493FD859193FF81916F01AD
:10193000853229F4B70190E00E945C0EE7CF512C6C
:10194000312C20E02032A0F48B3269F030F4803268
:1019500059F0833269F420612CC08D3239F0803324
:1019600039F4216026C02260246023C0286021C091
:1019700027FD27C030ED380F3A3078F426FF06C037
:10198000FAE05F9E300D1124532E13C08AE0389E7A
:10199000300D1124332E20620CC08E3221F426FD2E
:1019A0006BC1206406C08C3611F4206802C08836F2
:1019B00041F4F60193FD859193FF81916F018111AF
:1019C000C1CF982F9F7D9554933028F40C5F1F4F03
:1019D000FFE3F9830DC0833631F0833771F083352F
:1019E00009F05BC022C0F801808189830E5F1F4F20
:1019F00044244394512C540115C03801F2E06F0E79
:101A0000711CF801A080B18026FF03C0652D70E035
:101A100002C06FEF7FEFC5012C870E94510E2C0191
:101A200083012C852F77222E17C03801F2E06F0E2C
:101A3000711CF801A080B18026FF03C0652D70E005
:101A400002C06FEF7FEFC5012C870E94460E2C016C
:101A50002C852068222E830123FC1BC0832D90E05F
:101A600048165906B0F4B70180E290E00E945C0E7F
:101A70003A94F4CFF50127FC859127FE81915F010F
:101A8000B70190E00E945C0E31103A94F1E04F1AD9
:101A900051084114510471F7E5C0843611F08936BC
:101AA00039F5F80127FF07C0608171818281938138
:101AB0000C5F1F4F08C060817181072E000C880BDE
:101AC000990B0E5F1F4F2F76722E97FF09C09095CE
:101AD0008095709561957F4F8F4F9F4F2068722E34
:101AE0002AE030E0A4010E94940EA82EA81844C059
:101AF000853729F42F7EB22E2AE030E025C0F22F60
:101B0000F97FBF2E8F36C1F018F4883579F0B4C054
:101B1000803719F0883721F0AFC02F2F2061B22E07
:101B2000B4FE0DC08B2D8460B82E09C024FF0AC0FE
:101B30009F2F9660B92E06C028E030E005C020E156
:101B400030E002C020E132E0F801B7FE07C060815A
:101B50007181828193810C5F1F4F06C0608171810A
:101B600080E090E00E5F1F4FA4010E94940EA82E0B
:101B7000A818FB2DFF777F2E76FE0BC0372D3E7FFA
:101B8000A51450F474FE0AC072FC08C0372D3E7EC6
:101B900005C0BA2C372D03C0BA2C01C0B52C34FFB8
:101BA0000DC0FE01EA0DF11D8081803311F4397EF4
:101BB00009C032FF06C0B394B39404C0832F867863
:101BC00009F0B39433FD13C030FF06C05A2CB31490
:101BD00018F4530C5B18B32CB31468F4B70180E20B
:101BE00090E03C870E945C0EB3943C85F5CFB31423
:101BF00010F43B1801C0312C34FF12C0B70180E350
:101C000090E03C870E945C0E3C8532FF17C031FD9E
:101C100003C088E790E002C088E590E0B7010CC0FF
:101C2000832F867859F031FF02C08BE201C080E239
:101C300037FD8DE2B70190E00E945C0EA51438F4E8
:101C4000B70180E390E00E945C0E5A94F7CFAA940B
:101C5000F401EA0DF11D8081B70190E00E945C0E55
:101C6000A110F5CF332009F451CEB70180E290E006
:101C70000E945C0E3A94F6CFF7018681978102C0EC
:101C80008FEF9FEF2C96E2E10C940E0FFC01059074
:101C9000615070400110D8F7809590958E0F9F1F6E
:101CA0000895FC016150704001900110D8F78095B3
:101CB00090958E0F9F1F08950F931F93CF93DF93DF
:101CC000FB01238121FD03C08FEF9FEF28C022FF7E
:101CD00016C046815781248135814217530744F449
:101CE000A081B1819D012F5F3F4F318320838C9371
:101CF000268137812F5F3F4F3783268310C0EB014A
:101D0000092F182F0084F185E02D0995892BE1F624
:101D10008E819F8101969F838E83812F902FDF91EB
:101D2000CF911F910F910895FA01AA27283051F100
:101D3000203181F1E8946F936E7F6E5F7F4F8F4FFC
:101D40009F4FAF4FB1E03ED0B4E03CD0670F781F5B
:101D5000891F9A1FA11D680F791F8A1F911DA11D40
:101D60006A0F711D811D911DA11D20D009F4689479
:101D70003F912AE0269F11243019305D3193DEF621
:101D8000CF010895462F4770405D4193B3E00FD0D7
:101D9000C9F7F6CF462F4F70405D4A3318F0495DC2
:101DA00031FD4052419302D0A9F7EACFB4E0A695A5
:101DB0009795879577956795BA95C9F700976105C7
:101DC000710508959B01AC010A2E0694579547951D
:101DD00037952795BA95C9F7620F731F841F951F12
:101DE000A01D08952F923F924F925F926F927F9223
:101DF0008F929F92AF92BF92CF92DF92EF92FF921B
:101E00000F931F93CF93DF93CDB7DEB7CA1BDB0BC6
:101E10000FB6F894DEBF0FBECDBF09942A8839886B
:101E200048885F846E847D848C849B84AA84B98472
:101E3000C884DF80EE80FD800C811B81AA81B9817E
:101E4000CE0FD11D0FB6F894DEBF0FBECDBFED0192
:061E50000895F894FFCF95
:101E560000010204050607C300C300C300C2004513
:101E660052524F523A20544F4F2041524700574545
:101E76004C434F4D4520544F0050524F4A45435412
:101E86002047524F555020313000454E5445522080
:101E960053504545443A0053455420504152414D14
:101EA6004554455253004B703D004B643D004B6911
:101EB6003D0053706565643A007C7C7C00253033B8
:101EC600642072706D00436F756E746572436C6F3B
:101ED600636B776973650037383934353631323399
:041EE6002A3023007B
:00000001FF
